:020000021000EC
:10000000E03F082093010100FB000100E100010036
:10001000090101001901010029010100000000008F
:10002000000000000000000000000000D57F01007B
:100030003901010000000000658001005901010044
:10004000F1850100F1850100F1850100F1850100D4
:10005000F1850100F1850100F1850100F1850100C4
:10006000F1850100F1850100F1850100F1850100B4
:10007000F1850100F1850100F1850100F1850100A4
:10008000F1850100F1850100F1850100F185010094
:10009000F1850100F1850100F1850100F185010084
:1000A000F1850100F1850100F1850100F185010074
:1000B000F1850100F1850100F1850100F185010064
:1000C000F1850100F1850100F1850100C0180200F1
:1000D00000C00720BC010000C0C10720BC05000013
:1000E00004207146084203D0EFF3098008F09EBA5D
:1000F000EFF3088008F09ABA704708B5014805F098
:100100005FFBFEE7BA12020008B5024805F058FB93
:10011000FEE700BFC512020008B5024805F050FB1B
:10012000FEE700BFD012020008B5024805F048FB08
:10013000FEE700BFDB12020008B5024805F040FBF5
:10014000FEE700BFE812020008B5024805F038FBE0
:10015000FEE700BFF612020008B507F001FF07F046
:10016000A3FFBDE8084007F00FBF0B4610B55C1AAF
:10017000944204D2441AE45843F8044BF7E710BD04
:1001800003461A1A8A4203D2002243F8042BF8E7E6
:100190007047164808F00AF8144808F00AF8144C9A
:1001A000144B9C4207D294E803000C3454F8042CFE
:1001B000FFF7DBFFF4E7104B9C4206D254F8080B24
:1001C00054F8041CFFF7DCFFF5E70AF03BFA07F0F0
:1001D000FDFF00F0E7FA01F053F84FF4164008F085
:1001E00043FB064805F0ECFAFEE700BFE03F0820BD
:1001F000CC000100D8000100E00001000A13020059
:10020000144A70B51368014613B94FF08053136058
:100210001068114B4518114E2B44B34298BF104B38
:100220000C4C96BFC81825602060126898BF18460D
:100230000C4B9A4281BF0C4A064B00201A6039B120
:100240000A4A136801331360094B1860094B19609F
:1002500070BD00BFC4C10720FF7FFFEFFE3F071046
:100260007CC70720FF3F082000400820CCC10720A2
:10027000C0C10720C8C107200AF00ABA0AF008BAAC
:100280000AF00EBA0AF00CBA10B504468AB06846F5
:100290000AF0AAFC204A214B2260089A2049A26059
:1002A000079A626052B90A681E4882428ABF02F108
:1002B000604202F17042A2F5E82262606268B2F523
:1002C000803F82BF02F17042A2F5E8226260002204
:1002D000E2600A6813498A4205D8C3F1405303F526
:1002E0000C239B1A09E010498A4207D8C3F18043C6
:1002F00003F580139B1A002B00DDE36020460B4BB7
:10030000E2611B68A3610A4B1B686361094B1B68B0
:1003100023610AB010BD00BF7C0700007CC7072026
:10032000C4C1072000800010FF3F0820C0C1072083
:10033000C8C10720CCC1072000207047FEE700009D
:10034000014B1860704700BFD8C10720014B1860EF
:10035000704700BFD0C1072008B502480BF0D6FB9C
:10036000FEE700BF0CFF010008B502480BF0CEFB12
:10037000FEE700BF26FF0100002070470120704704
:10038000F8B5084B16461A680F461C4642B10D4692
:10039000EB1BB34204DA236815F8010B9847F7E723
:1003A0003046F8BDD8C10720F8B5094B0F4618688C
:1003B00016461C4658B10D46EB1BB34205DA2368BE
:1003C0000020984705F8010BF6E726EAE670F8BD2D
:1003D000D0C107207047002070470000074B1B6802
:1003E0009A68824207D05A68824204D0DB681B1A9E
:1003F0005842584170470120704700BF40C1072054
:10040000002070470020704730B504468DB0A8B377
:10041000684606F0F3F89DF80030002503F03F032E
:1004200003939DF8013003A803F03F0304939DF864
:1004300002300B9503F01F0305939DF8043003F081
:100440001F0306939DF8053003F00F03013B07934C
:10045000BDF80630C3F30B03A3F26C7308939DF849
:10046000033003F007030993BDF80830C3F30B030F
:10047000013B0A930AF03EFA84E8210000200DB007
:1004800030BD000070B50F4D0F4E2C6814F0010404
:1004900015D1284608F0AEFA88B14FF40E70FFF778
:1004A000EBFE302380F835323A2380F8344280F86E
:1004B000363280F837423060284608F0A7FA3068B4
:1004C00070BD00BFF8C10720E0C1072038B5064C59
:1004D000236833B91C20FFF7CFFE054606F020F84D
:1004E0002560206838BD00BFECC10720F0B51F466D
:1004F00085B08DE80F000B4B6C46D96898688F4229
:1005000008BF82420BD004AD224603CAAA4218603B
:100510005960144603F10803F6D1012000E00020E1
:1005200005B0F0BD00C2072010B586B002AC84E86B
:100530000F009DF80B3008226FF3C7138DF80B30B6
:100540009DF80A3062F303038DF80A3094E80F0037
:10055000FFF7CCFF00202146024605F0EDFD0446E2
:1005600038B9054B032000930449054A422305F09E
:100570008BF8204606B010BD71FF010049FF010055
:10058000E1FF010038B5054C256825B90120FFF7CA
:1005900073FE05702060206838BD00BFFCC10720D5
:1005A00038B5084D2B7863B10024002005F018FE03
:1005B0002C70FFF7E7FF2246BDE83840042102F027
:1005C0005DB838BD10C2072010B586B0FFF7DAFF5E
:1005D00001F0FEFF164B0024009301942046642195
:1005E0000A22322305F0D4FC124B134A0093012057
:1005F0002823124905F048F82046012105F0FCFDAA
:100600000421ADF81400204605F0F6FD0221ADF8F6
:10061000160022462346009401940294039405A8F0
:1006200005F004FE204605F0DBFD012006B010BDFC
:1006300041060100BEFF010040FF010049FF01002B
:1006400010B5054B01241C70FFF79CFF2246BDE846
:100650001040042102F012B810C2072001480BF02C
:1006600055BA00BFEFFF010038B504460D4608F04B
:10067000A9F8074BB0FBF3F00223B0FBF3F295426D
:1006800001D3236138BDB3F5807FFAD00233F4E79C
:1006900040420F007FB500F235260C46012231465C
:1006A00003F058FF054650BB04A941F8040D02AA07
:1006B000304604F0B6FA00BB029A039B9078926928
:1006C00003FB00F1023A42435208B2F5004F1048D2
:1006D00034BF01254FF480654FEA51010D4BB1FB4A
:1006E000F5F128BF0346B2FBF5F28DE80A000A488F
:1006F00021460BF095F9012008E0084B00E0084B7B
:10070000084821462A460BF08BF9002004B070BD42
:100710002D0002002A000200370002003000020013
:10072000340002006500020038B5074C23684BB95D
:100730000820FFF7A1FD0546FFF7C8FE402328600B
:100740002B712560206838BD18C2072038B5084CC9
:1007500023685BB90C20FFF78FFD0546FFF7B6FE57
:1007600090232B7100232860AB602560206838BD82
:10077000E4C1072010B5044C23681BB90120FFF722
:100780007BFD2060206810BDE8C1072010B5044C37
:1007900023681BB90120FFF76FFD2060206810BDA2
:1007A00014C20720AD49AE4A4023F0B58B614FF02B
:1007B000007393614FF480338B61AA4BADF5057DD7
:1007C0001868072520F0F00018601868022440F02F
:1007D00050001860186820F440501860086840F015
:1007E00040000860186820F47C201860186840F405
:1007F00028201860186820F470001860186840F409
:1008000020001860186820F040401860186840F018
:1008100000401860586820F03C005860586840F06C
:1008200028005860586820F003005860086840F4B9
:1008300080300860586820F440505860086820F400
:1008400080000860D96821F44031D960116841F016
:1008500080711160596821F440215960596841F450
:10086000802159609868804901409960116841F47D
:10087000897141F001011160996821F4701199604A
:10088000996821F070419960116821F44641116026
:10089000D96821F03001D960D96841F03001D960C0
:1008A000D96821F47011D960136843F000731360A4
:1008B000136823F08063136005F074FA0A200121A5
:1008C00007F0A0FD0A20012107F0B4FD67480121CF
:1008D00005604460FFF7C8FE05F054FF15200121B4
:1008E00007F090FD1520012107F0A4FD60480121CB
:1008F00005604460FFF7B8FEFFF7E8FD642105F0EE
:10090000D9FD10B95B480BF001F907F0B9FD01F012
:10091000CFFC10B958480BF0F9F84FF4FA6005F025
:1009200000FAFFF79BFE07F04DFF09F063F853490B
:1009300009F06CF908F0D2FC02460B4650480BF067
:100940006FF807F03DFC052804AC14D10023636068
:100950004C4B1B682360FFF781FE4B4B4B48D96C17
:100960001A6D5B6D00940BF05BF8FFF777FE41F2B8
:10097000883005F0D6F9FFF785FD4549FFF78AFE77
:10098000054668BB43480BF04BF802F0B3FEFFF797
:1009900079FD29462A4600F2352004F0A7F93E4B9E
:1009A0003E4A00280CBF104618460BF0AFF8FFF780
:1009B00069FD3749FFF76EFE90B939480BF0A6F88C
:1009C00002F044FE014637480BF02AF802F02EFEF2
:1009D000054602F03BFE05FB00F133480BF020F822
:1009E000324E334F336813F0010516D1304608F00C
:1009F00001F890B14FF40E70FFF73EFC012380F830
:100A00003432312380F835323A2380F8363280F898
:100A100037523860304607F0F9FF26493868264DCE
:100A2000FFF738FE11481821FFF71EFEFFF716FEEC
:100A30002B684BB90820FFF71FFC0646FFF746FD61
:100A40003823306033712E60286801F007FD0546B9
:100A5000B0BB1A480BF05AF833E000BF00C00920C1
:100A600020C0092000C00240F0FCFCFF0000034051
:100A700000800840B0000200E10002000024744938
:100A80000601020044400240004002401E010200F4
:100A9000960102009E0102009D00020098000200E3
:100AA000DB010200FA01020009020200F4C1072082
:100AB000DCC107202402020020C207202C02020011
:100AC0000125FFF743FE01F0F1FD064618B9724813
:100AD0000BF01CF83546FFF727FE01F03FFD0646F8
:100AE00018B96E480BF012F835466D4E33681BB9D5
:100AF0000120FFF7C1FB3060306801F0FDFCFFF71B
:100B000039FE01F0C0FDFFF73DFD01F061FDFFF78B
:100B10003DFE01F0BDFDFFF735FD002101F05AFD5E
:100B20008DB9FFF79BFDFFF7FFFD2D2101F0FEFCC6
:100B3000FFF7FAFD2D2101F005FDFFF723FDFF2151
:100B400001F048FD0CE0FFF7EFFD0546FFF7FEFD65
:100B500001F0D6FD09F06CF9C1B2284601F01AFD8A
:100B600000211022204609F0E7FD4E4821460F22C1
:100B7000002301F0D7FD80B9204609F07AFCC5B208
:100B8000284600F07FFD484A484B2946002808BF08
:100B900013464748434A0AF043FFFFF7EBFD01F0D5
:100BA00074FD054600200CF089F928440AF0B6FFD0
:100BB0004FF400720021204609F0BEFD204607F0E8
:100BC0009DFC21463B480AF02BFFFFF747FD8022A2
:100BD0000021204609F0B0FD204602F013FD2278E6
:100BE000FF2A04D0214634480AF01AFF29E0FFF713
:100BF000CDFD01F04FFD09281DD130480AF086FFD8
:100C000021462F480BF0B4F821462E480AF008FF81
:100C10002D480AF07BFF00232C4803A903930BF017
:100C2000A7F89DF80C30592B03D1204602F0C8FCE0
:100C300007E0274803E027480AF068FF26480AF043
:100C400065FF4FF208031C684FF20C031D684FF25A
:100C500010031E684FF2040319684FF470431A68BA
:100C6000A40AAD0A1D480AF0DBFE224629461C48AC
:100C70000AF0D6FE31461B480AF0D2FEFFF7EEFC22
:100C8000012004F095FC18480AF040FFFFF7E6FC4D
:100C90000DF5057DF0BD00BF4702020061020200B4
:100CA0001CC207207A020200A9000200A300020071
:100CB00080020200B4020200B7020200D302020066
:100CC000F5020200FA0202001503020058030200B6
:100CD0005C03020074030200A2030200D4030200BA
:100CE000000402002D0402004A04020001207047A3
:100CF000012070470120704710B5044C23681BB9D0
:100D00000120FFF7B9FA2060206810BD1CC207203F
:100D10002DE9F0410446904600231922C0E906233C
:100D200007F0D8FBD4E9062312F1190643F10007B6
:100D30004FF47A72002309F09BF8012505FA08F5B3
:100D40006FEA050880197941C4E904016379384ED6
:100D50006BB133680A202B433360B56104F0CCFFDC
:100D6000F561336808EA0303336000236371736934
:100D70001D4201D0A77937B17069284042D1A379CB
:100D8000002B3FD00AE03846012105F003FC38462D
:100D9000394605F02CFC0123A371EDE705F022FC98
:100DA000A06008F027FE08F099FA0022214B08F015
:100DB000E9FA1DA3D3E9002308F0E4FA00221E4B50
:100DC00008F0E0FA08F010FD1C492060054609F023
:100DD00007F808B103230CE02846194909F000F888
:100DE00008B1022305E02846164908F0F9FF10B1C2
:100DF0000123237100E02071012363710023A3719B
:100E0000BDE8F081D4E9062313439FD007F062FBCD
:100E10004FF47A72002309F02BF8D4E904239942A5
:100E200008BF904292D3E7E72D431CEBE2361A3F0E
:100E300020C00920004075400000E03F00007042E3
:100E40000000DC42000048432DE9F84F494B1A6886
:100E5000994612F0010F08D0474801211722FFF7E9
:100E600057FF46480121142202E045480121132280
:100E7000DFF80881FFF74CFF98F80400414C042884
:100E80004FF0000528BF0420A573E57308F014FA9D
:100E900000223D4B08F0C4F809F000F8364E2072ED
:100EA00096F804B0364F5846042828BF042008F0AE
:100EB00003FA0022344B08F0B3F808F0EFFF97F87C
:100EC00004A060725046042828BF042008F0F4F9FA
:100ED00000222D4B08F0A4F808F0E0FF0C2323714A
:100EE000A378062262F30303A072A370E572257350
:100EF00065736571A571E571A268E3682068616832
:100F0000FFF712FBD9F800301A4A0133B3F57A7FA4
:100F1000C8BF2B46136098F80430022B05D9FFF7A1
:100F200031FB012101F084FB04E0FFF72BFB0121E1
:100F300001F091FB3B79022B05D9FFF723FB02213E
:100F400001F076FB04E0FFF71DFB022101F083FBBB
:100F50003379022B06D9FFF715FBBDE8F84F0321C3
:100F600001F066BBFFF70EFBBDE8F84F032101F06F
:100F700072BB00BF34C2072088C2072060C20720AE
:100F800038C2072024C207200000E03F38B5062100
:100F900000220A2006F01FF9144B154A00210025F3
:100FA0000124186000230020C2E90401C2E90601FF
:100FB0001560137154719371936013620D4AC2E905
:100FC0000401C2E9060115601371547193719360B5
:100FD0001362094A1371C2E90401C2E906011560EE
:100FE000547193719360136238BD00BFB0C2072083
:100FF00038C2072060C2072088C2072008B5FFF763
:10100000E3FA0028FBD0012008BD000013B5074813
:1010100004F0FEF801240323019300940449054AD7
:10102000102304F037F9204602B010BD80040200FE
:101030008704020024C20720FFF7B2BAFFF704BFFB
:10104000704770477047000008B5064B00211868CC
:101050004FF0FF320B4606F0C3F910B1FFF7ECFF7B
:10106000F3E708BDB8C2072008B5064B0021586851
:101070004FF0FF320B4606F0B3F910B1FFF7DEFF79
:10108000F3E708BDB8C2072008B5064B00219868F1
:101090004FF0FF320B4606F0A3F910B1FFF7D0FF77
:1010A000F3E708BDB8C2072008B5064B0021D86891
:1010B0004FF0FF320B4606F093F910B1FFF7C1FF76
:1010C000F3E708BDB8C20720FFF798BFFFF79EBF40
:1010D00010B50446FFF7D4F8204610BDF0B506461B
:1010E00085B0002400942B494FF4C0620D2304F016
:1010F000E9FD294B01253360F5612146346228461C
:10110000032206F068F8254F21463860032228465E
:1011100006F061F8214678600322284606F05BF865
:101120002146B8600322284606F055F81C4BF860AB
:101130001D680523C5F38F058DE818002A46234650
:10114000029403941749184806F068FA06238DE8BC
:1011500018002A462346029403941449144806F0C2
:101160005DFA07238DE818002A462346029403946B
:101170001049114806F052FA08238DE8180002942D
:1011800003940E492A4623460D4806F047FA304696
:1011900005B0F0BDA804020050050200B8C2072047
:1011A0007C040200B304020049100100B7040200ED
:1011B00069100100BC04020089100100C204020091
:1011C000A910010070B50D461A4B002453F8216098
:1011D00019494B5D0133DBB2934202D04B55204697
:1011E00070BD4C55304621462246234606F0F8F89D
:1011F0000146B8B1114B53F8255028460AF086FC39
:1012000028460AF01CFF2346024629460C4801F0F6
:10121000ACFA0C4A0C4B9A644FF08043AA221A7223
:101220001C7004E030460A460B4606F005F8012023
:1012300070BD00BFB8C20720B4C2072098040200E6
:10124000C9040200EFBEADDE0040024010B503212C
:1012500001220446FFF7B6FF80B1204602210A2290
:10126000FFF7B0FF50B1204601210A22FFF7AAFF85
:1012700020B1204600210A22FFF7A4FF012010BD63
:1012800010B53420FEF7F8FF0446FFF727FF20468D
:1012900004F0E8FC0020014604F0F2FC002010BD40
:1012A000242310B503FB010188420BD043783BB1E6
:1012B000038CD4184FF6FF73A34228BF2346038440
:1012C0002430F1E710BD000037B5002302A840F834
:1012D000043D0C4B04215B6898470B4B019A1C683A
:1012E0000546141B1A60094822460421FFF7D8FF5F
:1012F000074802212246FFF7D3FF281C18BF012010
:1013000003B030BDC8C2072094C30720DCC2072049
:10131000B7C3072008B50B4B197803788B420A4BEB
:101320000BBF1A889A880132013214BF9A801A8042
:10133000064B8170DB6820219847003018BF0120E0
:1013400008BD00BF05C0072084C30720C8C207200E
:101350000A4B02781B789A42094B0BBFDA881A892C
:10136000013201320CBFDA801A810379C3F3C20261
:10137000073262F3C5030371FFF7CCBF05C0072036
:1013800084C3072010B5002306499A0011F82340B2
:10139000844201D1881810BD0133042BF4D1002000
:1013A00010BD00BFA5C3072070B1C3780133DBB205
:1013B000FF2BC37008D10023044A1A44D1780433A8
:1013C0004908102BD170F7D1704700BFA5C3072083
:1013D000242202FB01010346024630B58A4206D0B0
:1013E0001446243212F8235C002DF7D10FE0044696
:1013F00000258B420BD01A79C2F3C2001A8C42EA44
:10140000004295423CBF1C4615462433F1E7204676
:1014100030BD000038B50546C90001F10804FFF7EA
:1014200053FF1C4B1A782B789A4204D102211A4898
:10143000FFF7CEFF0CE019480421FFF7C9FFEB7856
:1014400033B990F82330042443F0800380F823302C
:10145000002380F8203080F8213002462B4690F897
:10146000231080F8224021F07F01C4F306240C43AE
:1014700080F8234005F1200153F8044B8B4242F8D9
:10148000044BF9D1064A0379127862F3C50303715C
:1014900038BD00BF05C00720B7C30720DCC2072046
:1014A00004C0072010B5FFF76DFF0446F8B9FFF739
:1014B00069FF0446D8B90F4BDA79D9788A4228BF38
:1014C0000A46D97A34BF1C1D1C4691422CBF1146D6
:1014D000094CDA7B094B8A4238BF1C46042220465D
:1014E000002109F029F9064AD37A0133D372204644
:1014F00010BD00BFA5C30720ADC30720B1C307209F
:1015000084C307202DE9F04105460C464FF024081E
:1015100008FB02188E1D444500F09E8094F823308D
:101520001A0625D5BDB12A7861788A4205D16F782F
:1015300016F8060C874200F09180E87858B1687878
:10154000884208D116F8061C914204D1A979A279E3
:10155000914200F0838094F82220218C03F07F03D5
:1015600042EA0323994274DB2046FFF7D3FE75E07D
:101570006278002A6DD06DB3297901F0C001C029CD
:1015800017D116F8060C6978884202D12878904263
:1015900064D0E778A87887420CD191420AD116F836
:1015A000060C2978884205D1A079A979884201D111
:1015B00054E079B1A878E17888420BD169789142FA
:1015C00008D116F8060C2978884203D1A079A979A8
:1015D000884249D094F82210208C03F07F0341EA1E
:1015E0000323984235DB002384F8203084F821302F
:1015F0002379C3F3C201CFB21FB12046FFF7A8FE83
:1016000027E003F0C003C02B19D01C4B16F8060CC2
:101610001B78984213D1E378934210D07BB1637961
:10162000032262F307136371E1702046FFF790FE17
:10163000134A2379127862F3C503237100E001276E
:101640006078FFF79FFE18B10021042209F074F8BA
:1016500027B9243424365EE7BDE8F0812046002116
:10166000242209F069F8F4E72279002363F3C50224
:1016700084F8203084F821302271EAE705C0072081
:1016800004C00720431EDBB2FD2B9DBF024B187028
:1016900001200020704700BF05C00720014B1878CB
:1016A000704700BF05C007202DE9F7430446914667
:1016B0001E469DF828500F46002963D0354B93F8FD
:1016C0000080414560D00F2E5ED800285ED02022D9
:1016D000002109F031F8FF2F237914BF09F003022C
:1016E000002262F38713032262F302032A4A67701F
:1016F000127884F8008062F3C503284A23711378B6
:1017000084F802800133DBB21370A3710BAB019339
:1017100015B94FF0010818E0019AE07913465268B4
:1017200053F8081B00EB02085FFA88F8013DB8F196
:10173000180F0193EDB206D80830204408F0D6FF08
:1017400084F80780E4E74FF00008DFF854900123A5
:10175000384689F80030FFF715FE0546FFF724FEEE
:10176000002389F80030637925B966F307136371A4
:10177000E57005E0AA7862F3071363716B78E37094
:10178000404603E0084601E00020FFE703B0BDE863
:10179000F08300BF05C0072004C00720B5C30720A1
:1017A00090C30720124B012270B51A7004461E46E2
:1017B00008B9002518E0FFF7ADFD05460028F8D070
:1017C000237903F0C003402B06D0C02B0AD1E37865
:1017D00053B162789A4207D0617920460909FFF730
:1017E00019FE01E0802BF7D000233370284670BD2E
:1017F00090C3072082B0F0B51746421ED2B28DB01A
:10180000FD2A04460D46139301D900205AE0002B0F
:10181000FBD0159B002BF8D0179B002BF5D0169B07
:10182000002BF2D0149B002BEFD000214822284837
:1018300008F082FF00219022264808F07DFF002159
:101840001022254808F078FF00210C22234808F0D8
:1018500073FF00210C22224808F06EFF214E224B1C
:101860001C703446214B1D7013AD0FCD0FC42B6877
:10187000002118221E48236008F05EFF39461C48EC
:1018800017220AF0FDFB0020B368014698470028A4
:10189000BBD09DF8603013B9FFF716FD12E0154A72
:1018A0000123019206220292009304A8FF21002244
:1018B000FFF7FAFE0028A8D004A8FFF773FF00285E
:1018C000A3D0E9E70DB0BDE8F04002B0704700BF1B
:1018D000B7C30720DCC20720A5C3072099C3072090
:1018E00084C30720C8C2072005C0072098C307206B
:1018F0006CC307206805020030B5182B8DB0054673
:101900000C4615D8B2FA82F1181C18BF01204909FB
:1019100081420DD08DE80D00294604A822469DF88D
:101920004030FFF7C1FE18B104A8FFF73BFF00E00D
:1019300000200DB030BD13B50446107852790B4627
:101940001209009203212246FFF7D6FF02B010BD14
:1019500000231846044A12F823200AB10130C0B20D
:101960000133042BF6D17047A5C307202DE9F041C0
:1019700088B068460021202208F0DEFEA14B1B78CB
:1019800003F0FF04002B40F03A819F4E6846336914
:1019900020219847002800F083809C4D6B880133FC
:1019A0006B80FFF7D5FF9DF80420A87202F00703B3
:1019B000032B04D0964A137843F0010309E0954BBA
:1019C0001D789DF80230AB4205D1914A137843F05F
:1019D00002031370E3E0C2F3C2029DF800E09DF839
:1019E0000600D7B28C4904EB440313F801C0F44558
:1019F0000AD10B445978814206D199780124CF1B32
:101A000018BF01279A7018E00134042CEAD18349E9
:101A10000B689A70804A587002F10900834283F87B
:101A200000E040F0C9800A609DF800009DF8023097
:101A3000834240F0C480002427469DF80200FFF74F
:101A400031FD9DF8022002709DF8022042700022B4
:101A50008270FFF7A9FC04B117B39DF80030AB42C8
:101A600000F09C809DF80170FF2F1BD13368684601
:101A70002021984720B9664A137843F00403137075
:101A80009DF8053003F00F02511C61F303038DF83C
:101A90000530C3F303139A4202DA6846FFF73AFCB3
:101AA00000247CE0BD422BD164B99DF807304BB1D6
:101AB000336868462021984720B9554A137843F087
:101AC000040313709DF8043003F0C003402B12D1BF
:101AD0009DF8073013B95248182108E04B480C21F3
:101AE0006A46FFF728FF002858D1002001466A46C1
:101AF000FFF721FF52E09DF80330002B4ED1F4E7B1
:101B0000484B1B78002BCBD09DF8054004F00F0606
:101B10004FEA14184645C3DA013666F30304384623
:101B2000FFF730FC8DF805409DF80340A5421ED11B
:101B30009DF8041001F0C001402906D0A1F18003F6
:101B40005A425A41144618B91BE00122002854D0C9
:101B5000C029437805D19F4203D0003318BF012329
:101B600000E00023134303F0010428B90BE0ACB9F3
:101B700010B9684641460FE043788DF80330857808
:101B800004E0C02939D000258DF803506846FFF7DE
:101B9000C1FB1CB168462946FFF73CFC6C46FFF7C9
:101BA00093FB204620490422FFF7ACFC20461F4946
:101BB0000222FFF7A7FC22E003330B6034E78542E3
:101BC0003FF439AFFFF76EFC0446FFF7EDFB2378D7
:101BD0003BB19DF80530A27803F00F0393423FF725
:101BE0002AAF9DF8003023709DF8023063709DF895
:101BF0000530C3F30303A3701DE70346B2E708B043
:101C0000BDE8F08190C30720C8C2072084C3072025
:101C1000B6C3072005C0072099C3072000C00720CE
:101C20006CC3072098C30720DCC20720B7C3072076
:101C300000231846094A1A4452780AB10130C0B24A
:101C40002433902BF6D1064B5A780AB10130C0B23A
:101C500093F825300BB10130C0B27047DCC20720C9
:101C6000B7C3072030B5414C4FF48035E561404C97
:101C7000A060E068C506FCD43D488068C0B20BB9DE
:101C80000C4665E00B46002A6AD0072A384C0D78CE
:101C90002FDDA5604D78083AA5608D78A560CD78D8
:101CA000A5600D79A5604D79A5608D79A56001F1DC
:101CB0000805C979A1602E498C696407FBD58C6839
:101CC0001C708C685C708C689C708968D97028491D
:101CD000CC68E406FBD48C68083303F8044C8C68A9
:101CE00003F8034C8C6803F8024C896803F8011C64
:101CF0001BE0032A1BDDA5604D78043AA5608D78B2
:101D0000A5600D1DC978A1601949CC68E406FBD413
:101D10008C68043303F8044C8C6803F8034C8C681B
:101D200003F8024C896803F8011C2946ABE701312E
:101D3000A560013AE568ED06FCD40D4C0133A468BA
:101D400003F8014C9FE7DD68ED06FCD4084B9B6867
:101D5000631A934204DA14F8015B054B9D60F2E7C5
:101D6000024B4FF480329A6130BD00BF00C00920A1
:101D70000080084007B5002302A9012201F8013DB7
:101D800000F01F001346FFF76DFF9DF8070003B03A
:101D90005DF804FB07B502AB03F8011D00F01F005E
:101DA00019460122002340F02000FFF75BFF03B03B
:101DB0005DF804FB08B51720FFF7DCFFC0F3001047
:101DC00008BD07207021FFF7E5BF03460A46A020A3
:101DD00019460023FFF746BF08B50020FFF7CAFFEA
:101DE000BDE8084000F0FE010020FFF7D3BF00006F
:101DF000024B4FF08072DA61704700BF20C00920AB
:101E000008B50020FFF7B6FF40F00101C9B200207D
:101E1000FFF7C0FF024B4FF080729A6108BD00BF10
:101E200020C0092007202021FFF7B4BF0021E120B6
:101E30000A460B46FFF716BF37B50C460546FFF7B7
:101E4000F5FF21462846FFF7C0FF0D4B4FF080728B
:101E50001C469A610022ADF80620BDF80630013319
:101E60009BB2ADF8063033B94FF08073E361FFF7F2
:101E7000DDFF03B030BDFFF79DFF0028EDD0F3E795
:101E800020C0092008B51720FFF774FF00F00100FB
:101E900080F0010008BD07204021FFF77BBF08B597
:101EA00003460A46612019460123FFF7DBFEC0F313
:101EB000420008BD0021E2200A460B46FFF7D2BED1
:101EC00070B5064600200D461446FFF753FF16B1C5
:101ED00000F0BF0002E040F04000C0B215B100F0D9
:101EE000DF0101E040F0200114B101F0EF0101E059
:101EF00041F010010020BDE87040FFF74BBF10B566
:101F000004460020FFF736FF14B900F0F7010DE09A
:101F1000012C04D100F0FB0141F0080106E0022C85
:101F200014BF40F0080140F00C01C9B20020BDE828
:101F30001040FFF72FBF08B50020FFF71BFFBDE8DB
:101F4000084040F00201C9B20020FFF723BF08B5E6
:101F50000020FFF70FFFBDE8084000F0FD01002062
:101F6000FFF718BF40F6DD13984206D840F662131B
:101F7000B0F5166F38BF184600E01846A0F5166198
:101F8000C9B20520FFF706BF10B504460620FFF7CB
:101F9000F1FEFA2C00F0D70102D141F0200104E05B
:101FA000B4F5FA6F08BF41F008010620BDE8104003
:101FB000FFF7F0BE10B504460620FFF7DBFE032C4A
:101FC00020F0060028BF032440EA4401C9B20620DD
:101FD000BDE81040FFF7DEBEF9284FF0FA0305D93F
:101FE000B0F57A6F88BF4FF47A6000E01846B0FB16
:101FF000F3F00F2900F1FF30C0B228BF0F2141EAF2
:102000000011C9B20420FFF7C5BE1130C0B21628B6
:1020100004D8202928BF2021FFF7BCBE7047032821
:1020200004D0042814BF0321022100E00121032071
:10203000FFF7B0BE03460A46302019460023FFF7DB
:1020400011BE03460A462A2019460023FFF70ABE9E
:1020500073B50E4615460446FFF72CFFFFF7E6FE64
:102060002B4B4FF08072DA61FFF771FF00210A46B7
:102070000120FFF725FFFFF7A4FE0220FFF73FFF37
:102080003046FFF76FFF2846FFF77EFF0320FFF77C
:1020900091FF02200321FFF77DFE01200021FFF7C1
:1020A00079FE4FF4FA700321FFF796FF21460020D6
:1020B000FFF7ABFF12200021FFF76CFE1320002179
:1020C000FFF768FE14200021FFF764FE15200021B1
:1020D000FFF760FE00211620FFF75CFE0D4B18682D
:1020E0001B79009005208DF80430FFF798FF6846B3
:1020F0000521FFF79FFF68460521FFF7A2FFFFF7C5
:102100001AFF4FF4FA6003F0F7FD02B070BD00BF94
:1021100020C009206F05020007B5094B002102AA63
:10212000186842F8041D0B4605F01FF9019B1BB10E
:10213000044B4FF080521A6003B05DF804FB00BFFF
:1021400008C4072004ED00E070B5174E326822B9CC
:102150000320202105F03FF83060144D2A6822B991
:102160000120202105F037F82860114C216821B9A1
:102170000120032205F02FF82060202040F6C31133
:102180004FF4FA62FFF764FFFFF73AFE16200121D1
:10219000084A04F05FF9306828B1286818B120684F
:1021A000003018BF012070BD04C4072000C4072000
:1021B00008C407201921010070B5064603790022E2
:1021C00003F0C003C02B0CBF0D4B0E4B88B01D6835
:1021D00031462846134605F02FF8044660B92246DA
:1021E00023466946284605F0FBF822462346284642
:1021F000314605F021F80446204608B070BD00BF06
:1022000000C4072004C4072038B504460D46FFF774
:1022100045FA237883420AD0E37843B909F0A6FC53
:10222000BD2300F0030000FB033003F065FDFFF762
:10223000DFFDFFF7D1FD2046A9B2FFF7FDFDFFF757
:10224000F1FDFFF7DDFD05F0B5FD022806D1044BD9
:10225000002118680A460B4605F087F8012038BDB2
:1022600008C4072038B505460C46FFF70BFE48B1F9
:10227000A1B22846FFF713FEFFF704FE08B9FFF7E7
:102280000AFE012038BD042938B5054603D1041CD7
:1022900018BF012400E0002406F01CF92CB14FF413
:1022A0007A72002307F0E4FD2860204638BD000064
:1022B00000B50C4B8DB009930B4B0C4A0B930C4B98
:1022C0000A930CAB43F8102D002204920FCB8DE83B
:1022D0000F00084B0121084A6A20FFF78BFA0DB066
:1022E0005DF804FB492101006522010087220100FD
:1022F00009220100B92101007405020008B505F0AA
:1023000059FD0F4B02285B6913D15A020DD5FFF717
:102310008FFC0C4B00284FF00001186814BF0122FD
:102320004FF0FF320B4605F05BF8BDE80840FFF7C1
:102330001DBB5B02F9D5FFF77BFC0028F5D108BD7A
:1023400000C0092008C40720F0B5864687B0104FAA
:102350004C1101F01F0501AE457004700FCF0FC680
:1023600070463B686D00336006AB03EB840353F8A3
:10237000143C0322CEF80430E30003F1804303F55C
:1023800030331968AA4021EA02021A6007B0F0BD92
:102390007C050200416840780A680123834022EAF4
:1023A00003030B607047416840780A68012383404B
:1023B00013430B607047000030B541780578054C39
:1023C000490054F8352003238B4022EA030344F8E4
:1023D000353030BD40C0024010B5094A04780123B1
:1023E000407821B152F8241083400B4304E052F8A6
:1023F0002410834021EA030342F8243010BD00BFBB
:1024000068C0024010B50446FFF7C4FF2046002113
:10241000FFF7E2FF2046FFF7CFFF204610BD30B5A3
:1024200004460D46134621792A46BDE8304000682F
:1024300004F07EBB1FB50A4604AB0021022423F83A
:10244000041D01790094006804F05DFB9DF80C0008
:102450009DF80D3043EA002004B010BD10B50446CD
:102460002A211922FFF7DBFF206821790D2204F0D1
:102470004EFBA0F12A035842584110BD044A13886C
:102480001F2B9FBF581C1080024A42F82310704730
:1024900010C4072014C40720144AF0B51488012C76
:1024A00020D9134B00211F46661EB14206DA586838
:1024B0001D680131401B43F8040BF5E77B6803EB13
:1024C0005301002318469CB2B44209DA57F824504D
:1024D00001338D4282BF012505FA04F42043F2E75F
:1024E000044B186000231380F0BD00BF10C4072008
:1024F00014C407200CC4072008B50220012105F0F0
:1025000081FF084B01209A6A22F007029A629A6AB8
:1025100042F006029A62044AD36843F03003D36063
:1025200008BD00BF0080004000C0024008B5044A5A
:1025300001F07F034171D25C0321FFF770FF08BDFA
:102540009005020008B5044A01F07F038171D25C56
:102550000221FFF764FF08BD9005020038B504466C
:102560000068217904F0EFFA054688B1204606217B
:102570000022FFF754FF204607210022FFF74FFFFC
:1025800020462E21FFF7D2FF20462E21FFF7DAFF4B
:10259000284638BD642370B5B1FBF3F404FB131176
:1025A000CCB20A21B4FBF1F501FB15413031C9B2BF
:1025B0000646FFF7C7FF092C8ABF05F130013046F8
:1025C0003046BDE8704094BF2021C9B2FFF7AEBFCE
:1025D0000120704738B50D46044605F027FD05F08B
:1025E0000F032370114B15F0010F4FF0010214BFC0
:1025F000DA619A61227812F0020F4FF0020214BFE2
:10260000DA619A61227812F0040F4FF0100214BFC1
:10261000DA619A61227812F0080F4FF4807214BFC9
:10262000DA619A61BDE8384005F012BD20C009208A
:1026300038B504460D4605F0F9FC013D237801212B
:10264000A9401943C9B221702046FFF7C3FFBDE876
:10265000384005F0FDBC38B504460D4605F0E6FCF3
:10266000013D23780121A94023EA01012170204680
:10267000FFF7B0FFBDE8384005F0EABC0AB1FFF74C
:10268000D7BFFFF7E8BF01207047022003F0C4BBAB
:1026900001207047044B5B69C3F38130C3F34123CE
:1026A00043EA8000704700BF20C0092010B50446EF
:1026B00001218122FFF7B3FE20682179012204F075
:1026C00026FA10F0600F14BF0120002010BD38B5AD
:1026D00000210546FFF7AEFE8122012184B2284683
:1026E000FFF79DFE24B2102094FBF0F007F086F96E
:1026F0004FF0765107F0D6F9A96807F0CBF838BD4E
:1027000008B5FFF7E4FF054907F0CCF9044907F0E5
:102710007DFA4FF0844107F0BDF808BD000010417C
:102720000000A040F0B50446ADF50B7D0F461646FF
:1027300021461D4601A800230122009301F048FF15
:10274000044670B91DB101A8294602F0C4F901A8D8
:10275000394632466B4601F0D4FF044601A802F028
:10276000A8F920460DF50B7DF0BDF0B50446ADF59A
:102770000B7D0F46164621461D4601A80023122256
:10278000009301F025FF044680B901A80DB1294648
:1027900000E0049902F09FF901A8394632466B46E1
:1027A00002F06DF8044601A802F083F920460DF509
:1027B0000B7DF0BD08B505F08DFE024BC3E90001AD
:1027C00008BD00BFB8C4072070B505F083FE1A4BE2
:1027D0001A4C83E803001A4B1A4D1B68C01A1A4B97
:1027E000186007F007F906F079FD11A3D3E900237B
:1027F00006F0C8FD06F0F8FF2268144B286053F875
:10280000220000222946134604F0AFFD2368002170
:102810000133032B08BF002323600D4B0A46BDE89C
:10282000704018680B4604F0A0BD00BFAFF30080F5
:10283000967B1A61B9A7913F38C50720C0C407200D
:10284000B8C4072040C50720C4C4072028C50720F6
:10285000B0C40720AFF3008010B504460830FFF77E
:10286000D1FD2046FFF7CEFD204610BD10B5044631
:10287000006908B1FDF706FD204610BDF8B5044615
:1028800015461F4604F10806FFF75EFD304629464F
:10289000FFF75AFD00210322A761012004F09BFCF1
:1028A000164B00210A4618600B4604F0C5FC204672
:1028B000FFF779FD3046FFF76DFD0220042100226D
:1028C000A66904F088FC0E4B432D43F8260005D082
:1028D000452D05D0412D05D1012302E0032300E061
:1028E00005232361207C0021064A03F0CBFD207CD8
:1028F0000121054A03F0C6FD2046F8BDB0C40720FB
:1029000028C50720B5270100C927010070B5214E51
:10291000214D224C0023304640214122FFF7AEFFDB
:1029200030461F4E21462A46FDF706FD012330465C
:1029300042214322FFF7A2FF30461A4E21462A4683
:10294000FDF7FAFC0223304644214522FFF796FFAB
:1029500021462A46144C3046FDF7EEFC002605239E
:1029600084E84800A660E6602820FDF787FC002286
:10297000206100230120C4E9062384F8246004F0C8
:10298000CEFC2A46206209492046BDE87040FDF78A
:10299000D3BC00BF0CC50720D4C1072059280100B3
:1029A00094C40720F0C40720C8C407206D28010084
:1029B0007F2816D931B1FF2812D80A4B803833F856
:1029C00010007047074A8BB232F81120824203D0C0
:1029D00001318029F6D10B4603F18000C0B2704767
:1029E00000207047F00702000023064A32F8132047
:1029F00032B1904201D00133F7E7034A32F81300B5
:102A0000704700BFF00802001006020010B5012058
:102A10000C4604F084FC2060003018BF012010BD7B
:102A20000120704710B5044605F0C4F902280AD108
:102A300000210B4620464FF0FF3204F0D1FC431E2C
:102A40005842584110BD012010BD10B5044605F094
:102A5000B1F9022807D100212046BDE810400A46FE
:102A60000B4604F0E9BB10BD10B5044603F0FAFEB6
:102A700024B1012C06D100F07BF901E000F0EEFC5E
:102A8000044600E0042403F005FF204610BD28B1F1
:102A9000012801D00420704700F018BA7047F8B53B
:102AA00007460E4615461C4603F0DCFE3FB1012FDB
:102AB0000CD130462946224600F010FA04E0304698
:102AC0002946224600F016FD044600E0042403F0E7
:102AD000E1FE2046F8BDF8B507460E4615461C46F1
:102AE00003F0C0FE3FB1012F0CD1304629462246EB
:102AF00000F042FA04E030462946224600F020FD6C
:102B0000044600E0042403F0C5FE2046F8BD70B57D
:102B100006460D46144603F0A5FE36B1012E0AD135
:102B20002846214600F082FA03E02846214600F0BC
:102B30002BFD044600E0042403F0ACFE204670BDEB
:102B400008B505F0C7FC4FF47A72002307F090F93E
:102B500008BD000010B5044605F034FE074BB0FB7D
:102B6000F3F00223B0FBF3F2944202D3044A136160
:102B700010BDB3F5807FF9D00233F3E740420F0078
:102B800000000340044B9860DA68D206FCD4024B84
:102B90009868C0B2704700BF0000034038B5FFF727
:102BA000CFFF00F5FA75FF20FFF7ECFFFF20FFF7DE
:102BB000E9FFFF28044606D0FFF7C2FF0023994231
:102BC00008BFA842F2D3204638BD000038B5064CF5
:102BD0004FF00075E561FFF7E1FF044AA561137846
:102BE00043F00103137038BD20C0092006C0072040
:102BF00070B505460E46FFF7A3FF00F16404FF2001
:102C0000FFF7C0FFFF2808D1FFF79AFF0023994282
:102C100008BFA042F3D3002070BDFE28FBD1102EC8
:102C200006D928464FF40071002203F0B9FD19E0DF
:102C30002C1DFF20FFF7A6FF04F8040CFF20FFF770
:102C4000A1FF04F8030CFF20FFF79CFF04F8020C1F
:102C5000FF20FFF797FF043404F8050C331D1B1BFE
:102C6000DD42E6D1FF20FFF78DFFFF20FFF78AFF4F
:102C7000012070BD70B506460D46FFF78FFFFF2897
:102C8000044619D12846FFF77DFFFD2D16D04FF4DD
:102C900000712246304603F083FD2046FFF772FFA5
:102CA0002046FFF76FFF2046FFF76CFF00F01F0084
:102CB000431F5842584170BD002070BD012070BDB7
:102CC000020638B504460D4607D577200021FFF7E8
:102CD000F7FF012836D804F07F041B4B4FF0007239
:102CE0009A61DA61FFF75AFFFF282AD12046FFF7E1
:102CF00049FF280EFFF746FFC5F30740FFF742FFE5
:102D0000C5F30720FFF73EFFE8B2FFF73BFF402C7B
:102D100004D0482C0CBF8720012000E09520FFF74D
:102D200031FF4C2C02D1FF20FFF72CFF0A24FF209B
:102D3000FFF728FF030605D5013C14F0FF04F6D188
:102D400038BDFF2038BD00BF20C00920064A074912
:102D500013784969DBB2490154BF03F0FD0343F026
:102D600003031370704700BF06C0072020C009206E
:102D70002DE9F347FFF7EAFF514B1A781E4612F090
:102D8000020F01D0187896E00120FFF7E3FE0A2435
:102D9000FF20013CFFF7F6FE14F0FF04F8D1494D87
:102DA0004FF00073EB6140202146FFF789FF0128B7
:102DB00001D000246EE0FFF7C3FE4FF4D57100F59B
:102DC0007A7A4820FFF77CFF01283DD1FF20FFF7EA
:102DD000D9FE01AF38550134042CF7D19DF80630E7
:102DE000012BE6D19DF80730AA2BE2D1FFF7A8FE10
:102DF0004FF00009494508BF5045D04606D3FFF7BC
:102E00009FFE494508BF4045D3D207E0E9204FF077
:102E10008041FFF755FF0028E8D1F0E77A20002134
:102E2000FFF74EFF0028C4D10446FF20FFF7AAFE9B
:102E300038550134042CF8D19DF8043013F0400FBC
:102E400014BF0C24042425E02146E920FFF738FFB5
:102E5000022835BF02240124E9274127FFF770FE2D
:102E60004FF00009494508BF5045D0460BD3FFF746
:102E700067FE494508BF40450CD34FF40071502010
:102E8000FFF71EFF06E038460021FFF719FF002874
:102E9000E4D1ECE70C4B1C704FF00073AB613CB11C
:102EA0003378182003F0FE033370FFF753FE01E080
:102EB000FFF78CFE3078C0B202B0BDE8F08700BFEB
:102EC00006C0072020C0092044C5072008B5FFF729
:102ED0003DFF014B187808BD06C00720F8B5144621
:102EE00007460E46FFF732FF002C3AD01F4B1B78E7
:102EF000DB0738D41E4B4FF00072DA611D4A1D46C5
:102F0000127812F0080F08BF7602012C0DD1512063
:102F10003146FFF7D5FEE8B938464FF40071FFF7A8
:102F200067FEB0FA80F4640914E052203146FFF7DE
:102F3000C7FE78B938464FF40071FFF759FE28B143
:102F4000013C14F0FF0407F50077F3D14C20002179
:102F5000FFF7B6FE4FF00073201CAB6118BF0120D5
:102F6000F8BD0420F8BD0320F8BD00BF06C007204F
:102F700020C0092044C50720F8B5144607460E4670
:102F8000FFF7E4FE002C45D0254B1A78D20743D436
:102F90001B785B0742D4234B4FF00072DA61224A60
:102FA0001D46127812F0080F08BF7602012C0CD1D2
:102FB00058203146FFF784FE28BB3846FE21FFF734
:102FC00059FEB0FA80F464091DE012F0060F03D038
:102FD000D7202146FFF774FE59203146FFF770FED7
:102FE00088B93846FC21FFF745FE28B1013C14F0B2
:102FF000FF0407F50077F4D10020FD21FFF73AFE2A
:10300000002808BF01244FF00073201CAB6118BFDB
:103010000120F8BD0420F8BD0320F8BD0220F8BD52
:1030200006C0072020C0092044C507207FB50446FC
:103030000D46FFF78BFE052C1AD12B78012B00F0E3
:10304000FD8003D3022B0BD00420FAE07E4B58699D
:1030500010F0806440F0F280FFF7B8FD2046F0E009
:10306000794B5B6983F08063C3F380636B70E5E049
:10307000764B1B78DB0700F1E3800E2C00F2D88042
:10308000DFE804F008124F53D6D6D6D6D6D6A3A87A
:10309000AAB4C4006C4B4FF00072DA61FFF77EFDFA
:1030A000FF3818BF0120C4E049200021FFF708FEC7
:1030B000044608B10120BCE068461021FFF798FDE6
:1030C0000028F7D09DF800309DF809009B09012BDE
:1030D0009DF8083005D1013000EB03239BB29B0221
:1030E0001CE09DF80710890001EB93135A1C9DF812
:1030F00006309DF8051003F0030302EB83239DF8CF
:103100000A2001F00F0101EBD212911C00F0030222
:1031100001EB4202D2B29BB2093A93402B602046A7
:1031200087E04FF400732B8052E0494E337803F070
:10313000040303F0FF01DBB1CD200021FFF7C0FD48
:103140000028B7D1FF20FFF71DFD68461021FFF7CB
:103150004FFD0028AED03024FF20FFF713FD601E86
:1031600010F0FF04F8D19DF80A2010231209D4E7CB
:103170004920FFF7A5FD044600289BD16846102191
:10318000FFF736FD002895D031789DF80A2001F030
:10319000020101F0FF009DF80B3051B102F03F0237
:1031A000DB0903EB42039DF80D2001339209013A3C
:1031B000B3E7C2F3840103F003045A0902EBC4022B
:1031C000531C01FB03332B6033E0214B1B782B7026
:1031D00000202EE0492000E04A200021FFF770FD8A
:1031E00000287FF467AF284610211BE07A200021D9
:1031F000FFF766FD00287FF45DAF2C1DFF20FFF771
:10320000C1FC05F8010BA542F8D1E1E7CD20002172
:10321000FFF756FD00287FF44DAFFF20FFF7B2FC0B
:1032200028464021FFF7E4FCB0FA80F0400900E0B6
:103230000420054B4FF000729A6102E0002000E08C
:10324000032004B070BD00BF20C0092006C00720C5
:1032500044C50720054B1B78253BDBB2032B9ABFE7
:10326000034A52F823000020704700BF48C50720DA
:10327000D80A02001B4B2DE9F0411D880646B5F522
:10328000007F0F46144602D1084611460AE0B5F504
:10329000807F09D1084611462A46B04707F580705D
:1032A00004F580712A4617E0B5F5047F05D1510A6F
:1032B000384689024FF400720EE0B5F5847F0FD1D5
:1032C000140A08464FF480726102B047611C07F58A
:1032D000807049024FF480723346BDE8F0411847D0
:1032E000BDE8F08146C50720034610B500295DDD25
:1032F00007291A782E4C2FDDA2605A780839A2606F
:103300009A78A260DA78A2601A79A2605A79A260EB
:103310009A79A26003F10802DB79A360244B9C69CF
:103320006407FBD59C6804709C6844709C6884703A
:103330009B68C3701E4BDC68E406FBD49C680830B5
:1033400000F8044C9C6800F8034C9C6800F8024CA0
:103350009B6800F8013C1BE003291BDDA2605A7842
:103360000439A2609A78A2601A1DDB78A360104B22
:10337000DC68E406FBD49C68043000F8044C9C68CC
:1033800000F8034C9C6800F8024C9B6800F8013C74
:103390001346ABE70133A2600139E268D206FCD4E0
:1033A000034A0130926800F8012C9FE710BD00BF6E
:1033B0000000034007B50B0C8DF804008DF80530B4
:1033C0008DF807100B0A01A804218DF80630FFF7CD
:1033D0008BFF03B05DF804FBF7B5164607460E4CAD
:1033E00040250323E5618DF804300B0C8DF8053082
:1033F0008DF807100B0A01A804218DF80630FFF79D
:1034000073FF38463146002203F0CAF9A561A56171
:10341000A56103B0F0BD00BF00C009200D4B4022E4
:10342000DA610D4BD7229A60DA68D106FCD40A4BD8
:103430009B68094BFF229A60DA68D206FCD4064BDF
:1034400098680306F5D5034B40229A61C0B29A6191
:103450009A61704700C0092000000340F7B5FFF7EC
:10346000DDFF1F4C002323801E4B1F4E40271A8870
:103470009B78F7610546032101A8ADF804208DF87B
:103480000630FFF731FF9DF805209DF806301F2A12
:10349000B761B761B7611CD1A3F12502032A18D81F
:1034A000124A252B137005F0010006D1002814BF25
:1034B0004FF480734FF4847305E0002814BF4FF479
:1034C00000734FF404732380FFF7C4FE084B400AD7
:1034D00018602088B0FA80F0400903B0F0BD00BF4A
:1034E00046C50720D00A020000C0092048C50720B1
:1034F0004CC507202DE9F0418B1817460E4A013BB9
:1035000012688046934214D84D024446FFF786FF66
:103510000026C8EB0502BE42224407DA21460748CE
:10352000FFF7A8FE04F500740136F2E70020BDE8BD
:10353000F0810120BDE8F0814CC50720D93301009E
:103540002DE9F0418B1817460D4A013B1268804661
:10355000934212D804464D020026C8EB0502BE4233
:10356000224407DA21460748FFF784FE04F5007479
:103570000136F2E70020BDE8F0810120BDE8F081CE
:103580004CC507206936010010B50C46072805D840
:10359000DFE800F006090E1214141414042010BD04
:1035A000FFF73CFF0AE0FFF755FE400A206005E008
:1035B0004FF400730B8001E001230B60002010BD6D
:1035C00070B590B003466A466E4600F14005144659
:1035D00018685968083303C4AB422246F7D1084D36
:1035E0004024EC619B200021FFF7E4FE3046214699
:1035F000FFF77AFEAC61AC61AC6110B070BD00BF8A
:1036000000C0092070B50646074D402477200021F0
:10361000EC61FFF7CFFE30462146FFF765FEAC6157
:10362000AC61AC6170BD00BF00C00920064B10B595
:103630001C8834F01F0404D0FFF70CFEB0FBF4F03C
:1036400010BD204610BD00BF46C50720014B18889D
:10365000704700BF46C50720024B1878003018BFDE
:103660000120704746C507202DE9F7434FF0FF338F
:103670000F46904601938146FFF7D0FEFFF7ECFF1F
:103680000646B0B1194C4025194BE5611B88032053
:10369000B3F5847F0CBF4FF480714FF40071394350
:1036A000FFF788FE01A80421FFF71EFEA561A561B2
:1036B000A5610E4C402382203946E361FFF77AFE74
:1036C00048464146012203F06BF83EB1019B02A837
:1036D000013340F8043D0421FFF706FE4023A361B7
:1036E000A361A36103B0BDE8F08300BF00C009205F
:1036F00046C5072037B5074B074C18684025019091
:103700000421E56101A8FFF7EFFDA561A561A561B1
:1037100003B030BDD30A020000C009201FB501A8C4
:1037200002F06CFF9DF809309DF8082003F00F03AC
:1037300002F01F025B0543EA02419DF806309DF846
:10374000040003F01F0341EAC3229DF80530C0F3D3
:10375000440003F03F0342EA4313BDF80A20184334
:10376000520602F10842104305B05DF804FB30B583
:1037700004460D1F131B0344032B04D955F8043FC3
:1037800044F8043BF6E722F00303194402F0030275
:10379000013B18440A44914204D011F8013B00F85F
:1037A000013FF8E730BD0244904202D000F8011B0F
:1037B000FAE7704700F10B010023DA0142EA5303F4
:1037C00010F8012B1344884203F0FF03F5D118468B
:1037D0007047026810B50446BAB11346184613F88C
:1037E000011B1F2902D93A29F8D101E0002010BDA0
:1037F000114611F8013B884207D1303BD9B201296B
:1038000003D802321846226010BD4FF0FF3010BDC1
:10381000F8B5037904460BB90020F8BD056B00F13B
:103820003407394640782A460123FFF754F990B906
:10383000636AE269EB1A93422071EDD2E678012EB9
:10384000EAD9E36960781D4439462A460123FFF727
:1038500042F9013EF3E70120F8BD0000F8B5044647
:10386000FFF7D6FF05468DBB2378032B26D166795B
:10387000012E23D104F13407384629464FF4007253
:10388000FFF791FF4AF65523A4F83232104B226A13
:10389000636303F1FF5303F500532033C4F8183278
:1038A00063690132C4F81C3223692263C4F82032F0
:1038B000607839463346FFF70EF96571002160786C
:1038C0000A46FFF724F9003018BF0120F8BD00BFF9
:1038D00052526141036B70B5994205460E4610D0B5
:1038E000FFF796FF044608B101240BE0687805F164
:1038F000340132460123FFF7D2F80028F4D12E63B9
:1039000000E00024204670BD002310B503714FF085
:10391000FF3303630446FFF7DDFFA0B94AF65523E2
:10392000B4F832229A4210D1D4F86A30084A23F00F
:103930007F4393420AD0D4F8860020F07F40801A5B
:1039400018BF012010BD032010BD022010BD00BF14
:1039500046415400F0B50023036085B00746084691
:103960001546FFF736FF061EC0F2F2807E4B53F875
:103970002640002C00F0EE80E068FFF753F80028A6
:1039800000F0EA803C60237883B16078FFF77FF82D
:10399000C1070BD4002D00F0D98000F0040303F020
:1039A000FF00002B00F0DD800A20DAE00023F0B2F7
:1039B00023706070FFF758F8C20700F1CF800DB197
:1039C0004307F1D420460021FFF79EFF01281CD1B8
:1039D0002146002291F8F6310BB1D1F8FA314DF8B9
:1039E00022300132042A01F11001F3D100265DF8E2
:1039F00026502DB120462946FFF786FF08B90BE077
:103A000002200136042EF2D100E00025032800F048
:103A1000A78008B10D20A4E0B4F83F30B3F5007FD3
:103A2000F8D1B4F84A0000B9A06D94F844E0E06120
:103A30000EF1FF33012B84F803E0EBD894F841300A
:103A4000A370002BE6D05A1E1A42E3D1B4F845C049
:103A50001CF00F0FA4F808C0DCD1B4F8472002B95D
:103A6000626DB4F842100029D4D00EFB00FE01EBC9
:103A70001C177744BA42CDD3D21BB2FBF3F3002B11
:103A8000C8D040F6F572934206D94FF6F576B342A8
:103A90008CBF0326022600E00126023329442F446E
:103AA000032EA36125626162E76206D1BCF1000FBB
:103AB000B0D1226E9B00A26210E0BCF1000FA9D031
:103AC000022E4FEA43020CBF1346D218714418BFAE
:103AD00003F00103A16218BF03EB520303F2FF13CB
:103AE000B0EB532F96D34FF0FF3363612361032E66
:103AF0004FF08003637122D1B4F86430012B1ED1E2
:103B00002046691CFFF7E6FEC8B94AF65523B4F80B
:103B1000322260719A4212D1626B144B9A420ED1DA
:103B200003F1FF53D4F8182203F5005320339A42CF
:103B300001BFD4F81C326361D4F8203223610C4AEF
:103B40002670138801339BB21380E380002008E0C5
:103B50000B2006E00C2004E00F2002E0032000E030
:103B6000012005B0F0BD00BF54C50720525261418D
:103B700050C5072010B50446A8B103689BB11A7858
:103B80008AB1D988828891420DD1D868FEF74AFF60
:103B900058B123685878FEF77AFF10F0010F14BF70
:103BA0000320002010BD092010BD0F2010BD50B112
:103BB000A1F10B03012B06D9092904D00F2902D04A
:103BC000C068FEF742BF704783690239023B9942E1
:103BD0003DBF8278C36A02FB013000207047012993
:103BE000F8B507460C464BD98369994248D2037809
:103BF000022B29D0032B34D0012B41D101EB5106EC
:103C0000416A01EB5621FFF765FE10B14FF0FF301E
:103C1000F8BD796AC6F3080301363B44384601EB28
:103C2000562193F83450FFF755FE0028EED1C6F325
:103C300008063E4496F83400E30745EA00204CBFEE
:103C40000009C0F30B00F8BD416A01EB1421FFF736
:103C500041FE0028DAD1630003F4FF73FE18B08E32
:103C6000F8BD416A01EBD411FFF734FE0028CDD135
:103C7000A40004F4FE743C44606B20F07040F8BD76
:103C80000120F8BDF8B5054684680E46012CE98090
:103C900001D10220F8BD03689A699442F9D254B95F
:103CA0001A78032A01D19A6A22B91A899642F0D267
:103CB000986A17E0144621469F783F01BE420DD313
:103CC0002868FFF78CFF431C01461AD00128E0D971
:103CD0002B689B699842DCD2F61BEFE728680C46FC
:103CE000FFF772FFEC600028D3D02B6800EB1610B2
:103CF00006F00F0603EB4616343628616E6100208D
:103D0000F8BD0120F8BD0129F8B505460C46164658
:103D10005FD9836999425CD20378022B38D0032B98
:103D200042D0012B51D101EB5107416A01EB5721E0
:103D3000FFF7D0FD002849D1C7F3080314F00104B0
:103D40002B4418BF93F83410F2B21EBF01F00F01DC
:103D500041EA0212D2B2696A83F8342001370123A2
:103D60002B71284601EB5721FFF7B4FD70BBC7F359
:103D700008072F4414B1C6F3071606E097F834304D
:103D8000C6F3032623F00F031E4387F834601DE0BB
:103D9000416A01EB1421FFF79DFDB8B9640004F4FA
:103DA000FF742C44A68611E0416A01EBD411FFF7A1
:103DB00091FD58B9A40004F4FE7430342C446368B7
:103DC00003F070431E43666000E0022001232B7164
:103DD000F8BD0220F8BDF8B505460F4631B90669B1
:103DE00096B183699E4228BF01260EE0FFF7F7FED9
:103DF00001283FD9441C02D14FF0FF30F8BDAB6918
:103E0000984238D33E4600E001263446AB6901347F
:103E10009C4204D3012E01D80020F8BD022428467C
:103E20002146FFF7DCFE30B1411C24D0012822D00E
:103E3000B442EBD1F0E7284621466FF07042FFF71D
:103E400062FFA8B957B96B692C615A1C0ED0013BAF
:103E50006B616B7943F001036B7107E028463946CB
:103E60002246FFF750FF0028EDD001E02046F8BDC4
:103E70000128C1D00120F8BD2DE9F843C6880446C9
:103E80000136B3B20F4613B90420BDE8F8830369C5
:103E9000002BF9D016F00F0859D1C1680133036126
:103EA000006819B903899E42EED250E08378013B45
:103EB00013EA16134BD1FFF792FE0128054602D8EC
:103EC0000220BDE8F883421C02D10120BDE8F8833E
:103ED000206883699D4234D3002FD5D0E168FFF775
:103EE0007AFF054600283BD00128E9D0431CECD0DE
:103EF0002068FFF78DFC07460028E6D12068394688
:103F000034304FF40072FFF74EFCD4F8009029468D
:103F10004846FFF759FEC9F8300023689A7897425F
:103F20000CD201221A712068FFF772FC0028CCD154
:103F300022680137136B01331363EEE71A6BD71B4B
:103F40001F63E56020682946FFF73EFE2061236875
:103F5000E68003EB4813343363610020BDE8F88347
:103F60000720BDE8F88300002DE9F74F0021064641
:103F7000FFF788FE002840F087804FF6FF734FF070
:103F8000FF084446338430683169FFF7A3FC0028FA
:103F90007AD175692B78002B6DD0E52BE97A5FD04B
:103FA0000F0701F03F0202D50F2A59D101E00F2A75
:103FB00042D1D6F81C90B9F1000F55D0580606D55D
:103FC00003F0BF04F38895F80D80338401E0A34229
:103FD00049D16B7B434546D12F784FF0000A27F03B
:103FE00040077B1E0D275F430123294A1AF8022050
:103FF000A85A83B1FEF7F8FC7F2F019033D839F827
:104000001700FEF7F1FC019A07F1010B824203460B
:1040100029D15F4603E04FF6FF72904223D10AF1A7
:10402000010ABAF10D0FE0D12A78510629D543B320
:1040300039F817302BB316E024B92846FFF7BAFB3E
:1040400080451AD0B369DA7AD20709D405F10B009A
:10405000854214D015F8011B13F8012B9142F7D0BB
:104060004FF6FF733384FF2430460021FFF704FF2F
:10407000002888D008E0042006E0204604E0002064
:1040800002E0013CE4B2EFE703B0BDE8F08F00BF0F
:10409000D80B02002DE9F74F0B7807462F2B8846E7
:1040A00001D05C2B01D108F101080024BC6098F814
:1040B00000301F2B5DD838462146FFF7E3FD7C61B9
:1040C0000CE1013339F81320202AFAD02E2AF8D037
:1040D0000BB144F00304524632F8021D2E2901D0E0
:1040E000013DF9D14FF0000B5E464FF0080A39F858
:1040F00013005A1C002840F08A80BB691A78E52A10
:1041000004BF05221A70BAF1080F04BFB600F6B258
:1041100006F00C030C2B00F0C58006F00302032A06
:1041200000F0C080A10709D406F00306012E08BFE5
:1041300044F01004042B08BF44F00804BB6938465F
:10414000DC72FFF711FFBB69DB7A002840F0AD801D
:104150005A0700F1C3807A69D37ADB0640F1AC805C
:104160003968538B0978032904BF928A43EA0243D2
:10417000BB6098F8003044462F2B08F10108F8D0B6
:104180005C2BF6D0D7F81C9004F1FF3AA9F1020697
:1041900000251AF8010F05F101081F281AD92F2848
:1041A00018D05C2816D0B8F1810F00F0878001216B
:1041B000FEF7FEFB002800F081807F2806D8494AE0
:1041C00012F8013F13B18342FAD177E026F8020FCB
:1041D0004546DEE72028A04409EB450334BF04240C
:1041E0000024002D6AD033F8022D202A01D02E2A77
:1041F00001D1013DF5E7002629F81560B8692021B5
:104200000B22FFF7D0FA09EB450A33465AE720287C
:1042100003D02E2805D1AA4252D044F003041346FD
:1042200065E7D34502D2AA4216D149E0BAF10B0F95
:1042300004D144F003044FF00B0A5EE7AA4203D016
:1042400044F003043FF659AFB600F6B22A464FF0E9
:104250000B0A4FF0080BE2E77F280CD900210192EE
:10426000FEF7A6FB019A18B11F4B184410F8800CFA
:1042700044F0020428B11D4911F8013F2BB18342DB
:10428000FAD144F003045F2006E0A0F141039BB2A1
:10429000192B19D846F00206BB6903F80B000BF185
:1042A000010BBCE744F002043CE7042816D113F0EC
:1042B000040F08BF052011E005200FE006200DE0E7
:1042C000BAF10B0FC0D1B4E7A0F161039BB2192B77
:1042D0009EBF203846F0010680B2DDE703B0BDE89E
:1042E000F08F00BF130B0200580B02001C0B0200E2
:1042F000F0B5866987B0C4690546314603A80C222B
:10430000FFF735FA9DF81730DB075ED50023F3720F
:104310000127EB61304603A90B22FFF728FA052F8E
:1043200015D93B46A01E30F8022F8AB1102102F0A9
:10433000010E0EEB430313F4803F1CBF83F488335C
:1043400083F0210301394FEA5202F0D1EBE73B46FB
:10435000072203F00F0000F13001392988BF00F176
:104360003701013A06A810441B0900F8131CF0D1CC
:1043700006A97E20114401F8140C934201D1334464
:1043800004E0F15C2029FAD00133F6E7072A9DBF4B
:1043900006A9891811F8141C202103F8011BA3EBAE
:1043A000060198BF01320729F0D92846FFF7DCFD46
:1043B00020B90137642FADD1072099E0042840F0DF
:1043C00097809DF81730F372EC619DF817309B07CA
:1043D00001D4012409E0002334F813200AB1013389
:1043E000FAE719330D24B3FBF4F428460021FFF754
:1043F00049FCA8B9064628682969FFF76BFA78B91D
:104400006B691B78E52B00D01BB90136A64201D1A0
:104410000AE0064628460121FFF72EFD0028EAD0D3
:10442000042808BF072063E0013E47D0E9882846FA
:10443000891BFFF727FC00285AD1A869FFF7BAF9B2
:10444000044628682969FFF745FA0346002B4FD137
:104450006A690F21F7B2D5F81CE0781ED1720D21E0
:10446000414318465473137353834FF6FF7C6045E2
:10447000DFF880C018BF3EF8110013F80CC003F13C
:10448000010322F80C004FF6FF7C18BF0131002811
:1044900008BF60460D2BE8D1604502D03EF81130D0
:1044A0000BB947F0400717702B6801221A71284694
:1044B0000021FFF7E1FCD8B9013EC2D12868296983
:1044C000FFF708FA044690B9686921462022FFF7F1
:1044D0006AF90B226869A969FFF749F9AB696A694A
:1044E000DB7A03F0180313732B6801221A7120463C
:1044F00007B0F0BDD80B0200012970B504460D4687
:1045000001D8022070BD83699942FAD2A3699D4205
:1045100005D220462946FFF762FB064608B900206F
:1045200070BD0128EDD0411C11D020462946002243
:10453000FFF7E9FB60B9636935465A1C1FBF0133B9
:104540006361637943F0010318BF6371DEE7012003
:1045500070BD0000F0B585B0019004A840F8041DBE
:1045600000911646FFF735F9041E2ADB174B53F866
:1045700024501F463DB1E868FEF752FA08B9022000
:1045800022E000232B70019921B9019847F82400FB
:1045900048B919E0002301F80C3BE0B2FEF736FA07
:1045A0000028ECD0F1E7012E0DD16946002201A8C8
:1045B000FFF7D0F9044601982146FFF7F8FA2046A4
:1045C00002E00B2000E0002005B0F0BD54C507203C
:1045D0002DE9F043D1B0019190460546002800F046
:1045E00084800023036001A906A802F01E02FFF7E1
:1045F000B1F90646002872D103AB0C9306A80FABA5
:1046000001990D93FFF746FD0B9C10B9002C08BFD4
:10461000062018F01C0F08F01F073BD048B10428F3
:1046200002D106A8FFF764FE47F008070B9C38B1DB
:1046300062E0E37A13F0110F5DD118F0040F56D148
:10464000380731D5FFF76AF80023C4F80E00069842
:10465000E372E3610278B4F81A80032A08BFA28AE1
:104660006383A38208BF48EA024801230371B8F1BB
:10467000000F19D04146D0F83090FFF73DFF0028D9
:104680003AD1069808F1FF3303614946FFF722F952
:1046900050B131E000282FD1E37AD90629D418F09F
:1046A000020F01D0DA0726D43B07069B48BF47F02C
:1046B00020071A6BAF71EA610022EA712C62197847
:1046C000628B032904BFA18A42EA01422A61E2699E
:1046D0002B60DB88EA600022AA60AA61AB800698A2
:1046E0003146FFF764FA304608E0092006E008206A
:1046F00002E0042000E007200646F0E751B0BDE8E4
:10470000F0832DE9F84F98460023C8F8003006469C
:104710000F461446FFF72EFA054630B13068294699
:10472000FFF745FA2846BDE8F88FF17929B13068DE
:10473000FFF73DFAF079BDE8F88FB379D90706D4D1
:1047400030680721FFF733FA0720BDE8F88FF368D8
:10475000B068181A844228BF0446002C00F08880F4
:10476000B368C3F30802002A69D130688578013D37
:1047700005EA532515F0FF050CD10BB9306902E0AD
:104780007169FFF72CFA012801D8022453E0421C7A
:1047900050D07061D6F800B071695846FFF714FA2E
:1047A00018B90224F471584663E05FEA542900EB1B
:1047B000050A23D09BF8023009EB05029A4288BF14
:1047C000C5EB03099BF80100394652465FFA89F3AD
:1047D000FEF765F970BBB3795B060CD5B069CAEB1F
:1047E0000000484507D207EB402006F124014FF4B2
:1047F0000072FEF7BCFF4FEA49252EE0B269524530
:104800001BD0B37906F1240513F0400F0AD09BF8B2
:10481000010029460123FEF75EF958B9B37923F068
:104820004003B37133682946587852460123FEF796
:1048300036F910B10124F4711AE0C6F818A0B16875
:104840003846C1F30801C1F50075A54228BF2546C9
:10485000314424312A46FEF78AFFB3682F442B44A3
:10486000B360D8F80030641B2B44C8F8003074E7FC
:1048700030682146FFF79BF92046BDE8F88F2DE907
:10488000F84F98460023C8F8003004460F461646F5
:10489000FFF770F9054600285ED1E17929B120685B
:1048A000FFF785F9E079BDE8F88FA379990706D479
:1048B00020680721FFF77BF90720BDE8F88FA36880
:1048C000DE4228BF002630E0750A00EB090A78D0E6
:1048D0009BF8023005EB09029A4288BFC9EB030539
:1048E0009BF8010039465246EBB2FEF7F4F8002877
:1048F00077D1A169CAEB0101A9420BD204F12400CE
:1049000007EB41214FF40072FEF731FFA37923F04A
:104910004003A3716D02A3682F442B44A360D8F811
:104920000030761B2B44C8F8003016B3A368C3F3DD
:104930000802002A59D1206890F8029009F1FF3945
:1049400009EA532919F0FF091FD163B9216959B147
:10495000012914D10225E57120682946FFF727F9BE
:104960002846BDE8F88F6169FFF735FA014600284F
:10497000EED1A368E26893424AD9E36048E04A1C5A
:104980002FD02369616103B92161A3795B060CD53E
:10499000214651F8243BA26958780123FEF79BF881
:1049A000F8B9A37923F04003A371D4F800B061698A
:1049B0005846FFF709F9002886D10225E5715846C7
:1049C000CBE7A36953450ED0A268E3689A420AD2A6
:1049D0009BF8010004F1240152460123FEF75FF821
:1049E00008B10125B7E7C4F818A0A0683946C0F39C
:1049F0000800C0F50075B54228BF35462044243074
:104A00002A46FEF7B4FEA37943F04003A37182E780
:104A1000A379206843F02003A3710021FFF7C7F8B2
:104A20000020BDE8F88F70B50446FFF7A3F80546EF
:104A3000002838D1A3799A0635D55B0612D52146D0
:104A400051F8243BA26958780123FEF744F828B1B5
:104A500020680121FFF7ABF8012070BDA37923F096
:104A60004003A3712068E169FEF734FF0546D0B921
:104A7000266AF37A43F02003F372E368F361236953
:104A800073831B0CB382FEF749FE7582C6F81600CD
:104A9000A379012223F02003A37123681A712068EF
:104AA000FEF7DCFE054620682946FFF780F8284619
:104AB00070BD38B50546FFF7B6FF044648B928462D
:104AC000FFF758F8044620B9286821462C60FFF704
:104AD0006EF8204638BDF8B504460E46FFF74AF892
:104AE000054678BBE17921B12068FFF760F8E079ED
:104AF000F8BDE3689E4204D9A27912F0020F08BF04
:104B00001E460022A368A2600EB9002655E0206868
:104B100085786D026BB1013B721EB2FBF5F2B3FBFF
:104B2000F5F18A4205D36A421340A360F61A61691F
:104B300012E0216979B9FFF74EF90128014607D142
:104B40000225E57120682946FFF731F82846F8BDAF
:104B5000013052D0216161610029D6D0AE421AD90C
:104B6000A37920689A0704D5FFF735F9014618B9EB
:104B700010E0FFF734F801464B1C3ED00129DFD985
:104B800023689B699942DBD2A36861612B44A360CF
:104B9000761BE3E72E46A3683344A360C6F30803FD
:104BA000002BB2D027683846FFF70EF818B9022557
:104BB000E5713846C7E700EB5626A368C3F3080340
:104BC000F3B1A26996421BD0A37904F1240513F036
:104BD000400F0AD02368294658780123FDF77BFF50
:104BE00058B9A37923F04003A37123682946587864
:104BF00032460123FDF753FF08B10125A1E7A66165
:104C0000A368E2682068934284BFE360A3794FF011
:104C1000000184BF43F02003A371FEF7C8FF00200A
:104C2000F8BD2DE9F34702AB43F8040D14461046D6
:104C3000884600221946FEF78DFE246805460028A6
:104C40004CD1A7696369BA1E934202D8C8F80030F4
:104C500044E094F80090B9F1010F10D10646022704
:104C600020463946FEF7BBFF431C2BD001282BD032
:104C700000B90136A36901379F42F1D327E003460B
:104C800002460646616A52B9204601F1010AFEF762
:104C900021FED8B9514604F134034FF40072B9F142
:104CA000020F05D1188800B901360233023A06E036
:104CB000186820F0704000B901360433043A013F0F
:104CC000E1D104E0012502E0022500E00546637918
:104CD000666143F001036371C8F80060204629460D
:104CE000FEF765FF284602B0BDE8F0872DE9F04FDA
:104CF00089B008AB43F80C0D18460E461546FEF772
:104D000068FD0028C0F20A82012E00F209826B1EA3
:104D10002B4040F00582BE4A52F82090B9F1000FB6
:104D200000F00082C7B289F800303846FDF79CFEDB
:104D3000C20700F1F981430700F1F88138460121EB
:104D400007AAFDF7E4FE08B101203FE2079B7F2B95
:104D5000FAD9002E14BF00223F229B1A019207931A
:104D60006DB94FF4FA62B3FBF2F2AA4931F81510AB
:104D70008A4201D20135F8E7A74A32F815506D0A88
:104D800003D0812D28BF802500E00125B3FBF5F479
:104D900040F6F572944240F205824FF6F572944265
:104DA00040F20F82A40004F207240022640A4FF0AC
:104DB000030803924FF0200B019A5A440292039A7F
:104DC00002EB040A029A9244019AAA1A52449342AC
:104DD00001D20E20FAE13846032106AAFDF797FE1C
:104DE00020B9069B013BB3F5004F01D30123069385
:104DF000069AB8F1030F02F1FF335344C2F10002E7
:104E000003EA020308BF029ACAEB030304BFD218E5
:104E10009B44069308BF1346079A14BFE4180293F5
:104E20000399CBEB02031B1B5B1AB3FBF5F3B8F141
:104E3000020F049305D140F6F57304999942C8D93D
:104E400016E0B8F1030F05D14FF6F573049A9A42B4
:104E5000BFD987E1B8F1010F0AD1B2F5803F34BF65
:104E60004FF0010A4FF0060A002E40F0618107E082
:104E7000B2F5803F34BF4FF0040A4FF0060AC6BBBC
:104E800009F13406304600214FF40072FEF78BFC26
:104E9000FE21DDF81CE089F8F7110199012301EBEF
:104EA0000E0043F6C161B0FBF1F18808069189F864
:104EB000F9113F21C9F8FA114AF6552140F03F0097
:104EC000002289F8F801A9F8321289F8F33189F83B
:104ED000F43189F8F52189F8F6A1C9F8FEE13846E0
:104EE0003146FDF7F8FD00287FF42EAF4FF0F80AA9
:104EF00001E04FF0F00A09F13406304600214FF48A
:104F00000072FEF750FC304644490B22FEF72FFC9E
:104F10004FF40073B8F1030FA9F83F304FF00103CD
:104F200089F8443089F84150A9F842B00CBF0023F9
:104F30004FF40073A9F84530079B89F849A0B3F5F1
:104F4000803F34BFA9F84730C9F854303F23A9F84F
:104F50004C30FF23A9F84E30019BC9F85030FEF7C2
:104F6000DDFBB8F1030F069016D10223C9F86030BB
:104F70000123A9F864300623A9F86630802389F854
:104F800074302923C9F87700C9F8584089F8763079
:104F900009F17B0022490CE0802389F8583021492F
:104FA0002923C9F85B00A9F84A4089F85A3009F169
:104FB0005F001322FEF7DBFB4AF655233846A9F8BB
:104FC00032323146019A0123FDF785FD00287FF436
:104FD000BBAEB8F1030F06D1019B38469A1D31468E
:104FE0000123FDF778FD304600214FF40072FEF7F3
:104FF000DAFBB8F1030F19D00B4BB8F1010F18BF52
:105000006FF0FF0343EA0A030693C9F834301AE04D
:1050100054C50720E80A0200FE0A0200240B020021
:10502000300B0200440B020000FFFF006AF0FF0398
:105030000693C9F834304FF0FF33C9F838306FF0B9
:105040007043C9F83C30029B31461A4603F1010A0D
:1050500038460123FDF73FFD014600287FF474AE7A
:1050600030464FF40072FEF79EFB01230693069B29
:10507000A3420FD238463146524601230AF1010BB2
:10508000FDF729FD00287FF45FAE069BDA46013369
:105090000693ECE7039B5446B8F1030F18BF1D4677
:1050A00038463146524601230AF1010BFDF713FD44
:1050B00000287FF449AE2B195B45DA46F0D1B8F1F0
:1050C000030F22D1434B3146C9F8343003F1FF536B
:1050D00003F500532033C9F81832049B3846013BCE
:1050E000C9F81C320223C9F820324AF65523A9F820
:1050F0003232019B5A1C0123FDF7EDFC019B38461F
:10510000DA1D31460123FDF7E6FC002138460A4648
:10511000FDF7FDFC003018BF012057E00B2055E0E3
:10512000132053E00C2051E003204FE00A204DE013
:1051300009F13406304600214FF40072FEF733FBCC
:10514000304625490B22FEF712FB4FF40073A9F8F5
:105150003F3089F84150A9F842B089F844804FF0B7
:10516000F00AE7E6DEB109F13406304600214FF4DB
:105170000072FEF718FB304617490B22FEF7F7FACC
:105180004FF40073A9F83F30012389F8443089F8BF
:105190004150A9F842B04FF0F00A0023CAE64FF0A0
:1051A0000C0A6DE604EB44040134640803344FF048
:1051B000010804F2FF142022640A03924FF0010B4D
:1051C000FAE5023464004FF00208F2E709B0BDE8E6
:1051D000F08F00BF52526141240B020008B50068F5
:1051E00006F023FF003018BF012008BD07B50023DB
:1051F000024630B1044900930868044900F0ADF854
:10520000FFE703B05DF804FB5CC50720DD5101003A
:10521000F8B5074608B9002527E00378002BFAD037
:10522000134E336813B900F071F830603846FFF759
:10523000DDFF05460028EED1082005F029FA0446D6
:105240000028E8D04560076000F060F8606038B181
:105250003068214600F066F830B9606805F020FA41
:10526000204605F01DFA00E025462846F8BD00BF9F
:105270005CC5072008B542684B689A4207D00068B1
:10528000096806F0D2FE003018BF012008BD0020DA
:1052900008BD00002DE9F743894690461F46BDF83A
:1052A0002850064608B9002529E00029FBD0002A2D
:1052B000F9D0002BF7D0142005F0EAF904460028B5
:1052C000F1D09DF82C30002D037408BF0125002378
:1052D000C560C0F80090C0F80480876000937068D3
:1052E0000949224600F04FF8054628B1706821466A
:1052F00000F018F8054610B9204605F0D1F9284607
:1053000003B0BDE8F08300BF7552010010B50C205A
:1053100005F0BEF9044618B100210C2205F00CFA84
:10532000204610BD38B50D46044608B9002038BDEA
:10533000082005F0ADF90028F8D000234360236869
:1053400005600BB9206002E0636803B15860A36890
:1053500060600133A360012038BDF8B50D461646E4
:105360001F4608B90020F8BD0029FBD00468002CB6
:10537000F8D0206831463A46069BA84708B920680D
:10538000F8BD6468F3E7F8B50D4616461F4608B940
:105390000120F8BD0029FBD00468002CF8D020685B
:1053A00031463A46069BA84708B16468F5E7F8BD60
:1053B00037B5024602AC00230C4D44F8043D286882
:1053C00021460AB913460CE00A2202F009F8034606
:1053D00048B9074928680A8801320A8021464FF0F7
:1053E000FF3201F0FDFF019803B030BD7CC50720FE
:1053F00066C50720F0B50024ADF50D7D0D460746C6
:10540000029403F067F84FF47A72002304F030FD41
:10541000214606464FF4097203A805F08DF9DDB167
:1054200003A81C491222FFF7D3F8044680B903A849
:105430000699FFF750FB044630B903A839462A46BF
:1054400002ABFFF71CFA044603A8FFF732FB04E0A7
:10545000114806F0E5FA00E02C4603F03BF84FF463
:105460007A72002304F004FD0C4B801B1A889042D2
:10547000029A88BF1880AB1A5E425E4136B9059B1E
:105480000748009321462B4606F0CAFA30460DF530
:105490000D7DF0BDF80B0200020C020064C5072070
:1054A000160C02002B4B2DE9F7431E6806F58068A9
:1054B000B14602AF0023284C47F8043D2068394626
:1054C0004EF6602201F08CFF08B1019B2BB93046EB
:1054D000C6EB0901FFF78EFFEAE7206802F02AF821
:1054E0001E4B019C1A880130904288BF18802046CC
:1054F00006F0A5FD0A232354451C019B002209EB5D
:1055000005045A554445019915D34846C9EB08028C
:1055100005F0ECF8C8EB040430464FF48061FFF767
:1055200069FF34B101992D1B30462944224605F00C
:10553000DDF8344403E048462A4605F0D7F8084B26
:10554000394618684FF0FF32002301F075FEA1467E
:10555000AFE700BF78C5072060C5072080C50720DA
:105560007CC5072073B502AC44F8040D0D4631B17B
:105570000D4B214618684FF0FF3200230FE006461E
:1055800006F05DFD0A233354019B411C5D540198D4
:10559000FFF730FF054B214618682A462B4601F0DD
:1055A0004BFE02B070BD00BF60C507207CC5072060
:1055B0002DE9F0412E4D86B02C688046002C54D148
:1055C0004FF48060059405F063F82A4E286040B9D6
:1055D0002868002835D005F063F8254B00221A60B2
:1055E0002FE0042122460A2001F0F5FD224F04217C
:1055F000386022460A2001F0EEFD3B683060002B47
:10560000E6D00028E4D00A24962005F041F8059061
:105610000028DDD00022306805A9134601F00CFEF9
:10562000013CF1D1CDF80080019402940394134819
:1056300013494FF4C072234601F0F0FF0028C7D091
:1056400013E033681BB90F4806F060FA0DE00A2436
:105650000022306805A9134601F0C2FE10B105987A
:1056600005F01EF8013CF3D1EDE706B0BDE8F0818E
:1056700078C507207CC5072060C50720A554010018
:10568000490C0200500C02002DE9F04F9946454BA1
:1056900097B01B6806460C461546002B7FD00FA816
:1056A00000F0ACFF02F016FF4FF47A72002304F012
:1056B000DFFB824602F07EFB3B4B821ED2F10008EC
:1056C00016AF48EB02080FCB07E90F005CB120468C
:1056D0002F2106F0E7FC20B920465C2106F0E2FC11
:1056E00010B1441C00E0314CDFF8C0B04046002D42
:1056F00008BF5D46FFF75CFE9DF83E1095F800C0C0
:1057000001F01F010B919DF83D109DF8412001F023
:105710003F010C919DF83C109DF8403001F03F0E88
:1057200016A901EB860151F8101C02F00F020D9131
:105730001F49CDF808E0BCF1000F14BF8C46DC46D1
:105740000B99CDF81CC000910C9903F01F03019137
:105750000D99CDF80CA00491059416490695CDF845
:105760002090074606F0ECFB014621ABC1F1950104
:10577000209A38180E9307F085FC0F4A384652F8E5
:1057800026304146013342F82630FFF7EBFE0B4B43
:105790001B783341DB0702D5384606F0B7F917B05E
:1057A000BDE8F08F78C50720E80B02003F1102002A
:1057B000040E0200750C020068C5072007C0072010
:1057C00010B5044602F032FC013C14F8010F10B190
:1057D00003F086F8F9E7BDE8104002F039BC0FB4D9
:1057E00070B5C2B046AC54F8046B4FF480752A46CD
:1057F00002A8002104F0A0FF23462946324602A851
:10580000019407F03FFC044602A8FFF7D9FF2046A9
:1058100042B0BDE8704004B0704713B50C4602AA10
:1058200000210B4642F8041D006801F09EFD019B1B
:105830001BB1236843F001032360012002B010BDB7
:1058400030B5044685B001A80D4600F0D7FE9DF89E
:105850000630227903F01F039A421CD19DF80530CF
:10586000627903F03F039A4215D19DF80430A27982
:1058700003F03F039A420ED12368002104AA18685E
:1058800042F8101D0B4601F070FD009B1BB12B6808
:1058900043F001032B60012005B030BD30B5224A32
:1058A00087B01378214C43F001031370002503A83F
:1058B000029500F0A3FE2B46009520681C4902AA21
:1058C000FFF761FD9DF80C3013F03F031BD10093EF
:1058D0006068174902AAFFF756FD9DF80D3013F0D6
:1058E0003F0310D10093A068114902AAFFF74BFDB6
:1058F0009DF80E3013F01F0305D10093E0680C49AA
:1059000002AAFFF740FD00230A4A009310680A49E3
:1059100002AAFFF738FD029B1BB1084B4FF08052E3
:105920001A6007B030BD00BF0040024084C50720A8
:105930001B58010094C507204158010004ED00E008
:1059400070B50D46044614F8013B23B32649086898
:1059500082689368013B002B936012DA9669B34228
:105960000ADB136814F8012C1A700868826813683F
:1059700019780A290CD101E014F8011C07F092FBF8
:10598000E1E7136814F8012C1A700B689A68136821
:1059900001331360D7E725B12846BDE8704006F013
:1059A000B5B81149086882689368013B002B936081
:1059B00011DA9469A34209DB13680A221A70086895
:1059C0008268136819780A290BD100E00A21BDE822
:1059D000704007F067BB13680A221A700B689A6858
:1059E00013680133136070BD40C107201A4B70B5B6
:1059F0001B780D4673B3044614F8013B23B31749D3
:105A0000086882689368013B002B936012DA9669FC
:105A1000B3420ADB136814F8012C1A700868826814
:105A2000136819780A290CD101E014F8011C07F059
:105A300039FBE1E7136814F8012C1A700B689A68B7
:105A4000136801331360D7E725B12846BDE87040DD
:105A500006F05CB870BD00BF98C5072040C10720A4
:105A60003C4B2DE9F3411A68036904469A4235D14B
:105A700000273D4638480021FFF7B8FF606A3749E4
:105A8000FFF7B4FF36480021FFF7B0FF354B1E6823
:105A90008EB1D6F800800137D8F8003040461B6937
:105AA000766898470028F3D1D8F824002E49FFF7EC
:105AB00047FF0125ECE735B12C483146FFF740FFA1
:105AC00001F0A6FE0AE0BD4208D0294B002118686B
:105AD0000A460B4601F0B0FB0135F4E7244B0021E8
